{
  "contractName": "IPLPrediction",
  "abi": [
    {
      "inputs": [
        {
          "internalType": "address",
          "name": "_oracle",
          "type": "address"
        }
      ],
      "stateMutability": "nonpayable",
      "type": "constructor"
    },
    {
      "inputs": [
        {
          "internalType": "enum IPLPrediction.Side",
          "name": "",
          "type": "uint8"
        }
      ],
      "name": "bets",
      "outputs": [
        {
          "internalType": "uint256",
          "name": "",
          "type": "uint256"
        }
      ],
      "stateMutability": "view",
      "type": "function",
      "constant": true
    },
    {
      "inputs": [
        {
          "internalType": "address",
          "name": "",
          "type": "address"
        },
        {
          "internalType": "enum IPLPrediction.Side",
          "name": "",
          "type": "uint8"
        }
      ],
      "name": "betsPerGambler",
      "outputs": [
        {
          "internalType": "uint256",
          "name": "",
          "type": "uint256"
        }
      ],
      "stateMutability": "view",
      "type": "function",
      "constant": true
    },
    {
      "inputs": [],
      "name": "gameFinished",
      "outputs": [
        {
          "internalType": "bool",
          "name": "",
          "type": "bool"
        }
      ],
      "stateMutability": "view",
      "type": "function",
      "constant": true
    },
    {
      "inputs": [],
      "name": "oracle",
      "outputs": [
        {
          "internalType": "address",
          "name": "",
          "type": "address"
        }
      ],
      "stateMutability": "view",
      "type": "function",
      "constant": true
    },
    {
      "inputs": [
        {
          "internalType": "enum IPLPrediction.Side",
          "name": "_side",
          "type": "uint8"
        }
      ],
      "name": "placeBet",
      "outputs": [],
      "stateMutability": "payable",
      "type": "function",
      "payable": true
    },
    {
      "inputs": [],
      "name": "withdrawGain",
      "outputs": [],
      "stateMutability": "nonpayable",
      "type": "function"
    },
    {
      "inputs": [
        {
          "internalType": "enum IPLPrediction.Side",
          "name": "_winner",
          "type": "uint8"
        },
        {
          "internalType": "enum IPLPrediction.Side",
          "name": "_loser",
          "type": "uint8"
        }
      ],
      "name": "reportResult",
      "outputs": [],
      "stateMutability": "nonpayable",
      "type": "function"
    }
  ],
  "bytecode": "0x608060405234801561001057600080fd5b506040516109873803806109878339818101604052602081101561003357600080fd5b810190808051906020019092919050505080600060016101000a81548173ffffffffffffffffffffffffffffffffffffffff021916908373ffffffffffffffffffffffffffffffffffffffff160217905550506108f2806100956000396000f3fe6080604052600436106100705760003560e01c80637dc0d1d01161004e5780637dc0d1d0146101085780637e0ecc00146101495780639d5a37391461019b578063f0f324971461020d57610070565b80632b539c8614610075578063430468441461008c5780634ec942b7146100bd575b600080fd5b34801561008157600080fd5b5061008a61023a565b005b6100bb600480360360208110156100a257600080fd5b81019080803560ff16906020019092919050505061055f565b005b3480156100c957600080fd5b50610106600480360360408110156100e057600080fd5b81019080803560ff169060200190929190803560ff169060200190929190505050610694565b005b34801561011457600080fd5b5061011d610848565b604051808273ffffffffffffffffffffffffffffffffffffffff16815260200191505060405180910390f35b34801561015557600080fd5b506101856004803603602081101561016c57600080fd5b81019080803560ff16906020019092919050505061086e565b6040518082815260200191505060405180910390f35b3480156101a757600080fd5b506101f7600480360360408110156101be57600080fd5b81019080803573ffffffffffffffffffffffffffffffffffffffff169060200190929190803560ff169060200190929190505050610886565b6040518082815260200191505060405180910390f35b34801561021957600080fd5b506102226108ab565b60405180821515815260200191505060405180910390f35b6000600360003373ffffffffffffffffffffffffffffffffffffffff1673ffffffffffffffffffffffffffffffffffffffff1681526020019081526020016000206000600160000160009054906101000a900460ff16600181111561029b57fe5b60018111156102a657fe5b81526020019081526020016000205490506000811161032d576040517f08c379a000000000000000000000000000000000000000000000000000000000815260040180806020018281038252601f8152602001807f596f7520646f206e6f74206861766520616e792077696e6e696e67206265740081525060200191505060405180910390fd5b6001151560008054906101000a900460ff161515146103b4576040517f08c379a00000000000000000000000000000000000000000000000000000000081526004018080602001828103825260168152602001807f656c656374696f6e20686176652066696e69736865640000000000000000000081525060200191505060405180910390fd5b600060026000600160000160009054906101000a900460ff1660018111156103d857fe5b60018111156103e357fe5b8152602001908152602001600020548260026000600160000160019054906101000a900460ff16600181111561041557fe5b600181111561042057fe5b815260200190815260200160002054028161043757fe5b04820190506000600360003373ffffffffffffffffffffffffffffffffffffffff1673ffffffffffffffffffffffffffffffffffffffff168152602001908152602001600020600080600181111561048b57fe5b600181111561049657fe5b8152602001908152602001600020819055506000600360003373ffffffffffffffffffffffffffffffffffffffff1673ffffffffffffffffffffffffffffffffffffffff16815260200190815260200160002060006001808111156104f757fe5b600181111561050257fe5b8152602001908152602001600020819055503373ffffffffffffffffffffffffffffffffffffffff166108fc829081150290604051600060405180830381858888f1935050505015801561055a573d6000803e3d6000fd5b505050565b6000151560008054906101000a900460ff161515146105e6576040517f08c379a00000000000000000000000000000000000000000000000000000000081526004018080602001828103825260148152602001807f656c656374696f6e2069732066696e697368656400000000000000000000000081525060200191505060405180910390fd5b34600260008360018111156105f757fe5b600181111561060257fe5b81526020019081526020016000206000828254019250508190555034600360003373ffffffffffffffffffffffffffffffffffffffff1673ffffffffffffffffffffffffffffffffffffffff168152602001908152602001600020600083600181111561066b57fe5b600181111561067657fe5b81526020019081526020016000206000828254019250508190555050565b3373ffffffffffffffffffffffffffffffffffffffff16600060019054906101000a900473ffffffffffffffffffffffffffffffffffffffff1673ffffffffffffffffffffffffffffffffffffffff1614610757576040517f08c379a000000000000000000000000000000000000000000000000000000000815260040180806020018281038252600b8152602001807f6f6e6c79206f7261636c6500000000000000000000000000000000000000000081525060200191505060405180910390fd5b6000151560008054906101000a900460ff161515146107de576040517f08c379a00000000000000000000000000000000000000000000000000000000081526004018080602001828103825260198152602001807f656c656374696f6e206e6f74207965742066696e69736865640000000000000081525060200191505060405180910390fd5b81600160000160006101000a81548160ff021916908360018111156107ff57fe5b021790555080600160000160016101000a81548160ff0219169083600181111561082557fe5b021790555060016000806101000a81548160ff0219169083151502179055505050565b600060019054906101000a900473ffffffffffffffffffffffffffffffffffffffff1681565b60026020528060005260406000206000915090505481565b6003602052816000526040600020602052806000526040600020600091509150505481565b60008054906101000a900460ff168156fea2646970667358221220873a43b9c9330ce218f0556307abb3cab54946615fe06f5873fa59204566e05964736f6c63430007030033",
  "immutableReferences": {},
  "source": "pragma solidity ^0.7.3;\r\n\r\ncontract IPLPrediction {\r\n    enum Side { MI,CSK }\r\n    bool public gameFinished;\r\n    address public oracle;\r\n\r\n    struct Result {\r\n        Side winner;\r\n        Side loser;\r\n    }\r\n    Result result;\r\n    mapping(Side => uint) public bets;\r\n    mapping(address => mapping(Side => uint)) public betsPerGambler;\r\n\r\n    constructor(address _oracle) {\r\n        oracle = _oracle;\r\n    }\r\n\r\n    function placeBet(Side _side) external payable {\r\n        require(gameFinished == false, 'election is finished');\r\n        bets[_side] += msg.value;\r\n        betsPerGambler[msg.sender][_side] += msg.value;\r\n    }\r\n\r\n    function withdrawGain() external {\r\n        uint gamblerBet = betsPerGambler[msg.sender][result.winner];\r\n        require(gamblerBet > 0, 'You do not have any winning bet');\r\n        require(gameFinished == true, 'election have finished');\r\n        uint gain = gamblerBet + bets[result.loser]*gamblerBet / bets[result.winner];\r\n        betsPerGambler[msg.sender][Side.MI] = 0;\r\n        betsPerGambler[msg.sender][Side.CSK] = 0;\r\n        msg.sender.transfer(gain);\r\n    }\r\n    \r\n    function reportResult(Side _winner, Side _loser) external {\r\n        require(oracle == msg.sender, 'only oracle');\r\n        require(gameFinished == false, 'election not yet finished');\r\n        result.winner = _winner;\r\n        result.loser = _loser;\r\n        gameFinished = true;\r\n    }\r\n}",
  "sourcePath": "C:/wamp64/www/norm1/ethereum/13.eth-prediction/contracts/IPLPrediction.sol",
  "compiler": {
    "name": "solc",
    "version": "0.7.3+commit.9bfce1f6.Emscripten.clang"
  },
  "schemaVersion": "3.3.0",
  "updatedAt": "2020-11-27T08:55:04.756Z",
  "networkType": "ethereum",
  "devdoc": {
    "kind": "dev",
    "methods": {},
    "version": 1
  },
  "userdoc": {
    "kind": "user",
    "methods": {},
    "version": 1
  }
}